:100000000C942A000C94190B0C944C0B0C947F0B41
:100010000C9447000C9447000C94840D0C944700FA
:100020000C9447000C9447000C94740E0C94410EF1
:100030000C9447000C94F60F0C9429100C945C104F
:100040000C9447000C9447000C9447000C94470014
:100050000C94470011241FBECFE5D8E0DEBFCDBF12
:1000600010E0A0E6B0E0E6E5F4E202C005900D92F3
:10007000A038B107D9F710E0A0E8B0E001C01D92A8
:10008000A639B107E1F70E94E6100C9429120C94EE
:100090000000EF92FF920F931F937B018C0120E0F1
:1000A00030E040E05FE40E94490388238CF0C801FF
:1000B000B70120E030E040E05FE40E94C1010E940F
:1000C000A9039B01AC01205030404040504806C07D
:1000D000C801B7010E94A9039B01AC01B901CA0183
:1000E0001F910F91FF90EF900895A0E0B0E0EBE733
:1000F000F0E00C94F211DC012B01FA019C9192309A
:1001000008F439C1EB018881823008F433C194309E
:1001100069F4843009F02FC111969C91119789815F
:10012000981709F428C1A0E6B0E025C1843009F48D
:1001300021C18230A9F4923009F01DC19A01AD01AC
:1001400088E0EA010990AE01E90109929E0181501F
:10015000C1F7E201898111969C918923818308C1AD
:10016000923009F407C112962D903C901397EB0141
:100170008A819B811496AD90BD90CD90DC901797AD
:10018000EC80FD800E811F819101281B390BB90184
:1001900037FF04C066277727621B730B6032710537
:1001A0000CF061C0121613066CF537014801062EDB
:1001B00004C096948794779467940A94D2F721E0C8
:1001C00030E040E050E004C0220F331F441F551FB1
:1001D0006A95D2F721503040404050402E213F21B7
:1001E00040235123211531054105510521F021E01E
:1001F00030E040E050E079018A01E628F72808293C
:1002000019293CC0232BD1F1260E371E350146019A
:10021000062E04C096948794779467940A94D2F734
:1002200021E030E040E050E004C0220F331F441FC3
:10023000551F6A95D2F721503040404050402A2146
:100240003B214C215D21211531054105510521F04E
:1002500021E030E040E050E059016A01A628B728CB
:10026000C828D9280BC0821593052CF01C01AA249C
:10027000BB24650103C0EE24FF24870111969C91E5
:10028000D20111968C91981709F445C0992339F041
:10029000A80197012A193B094C095D0906C0A6016E
:1002A00095012E193F09400B510B57FD08C01182D3
:1002B0003382228224833583468357831DC081E0A5
:1002C00081833382228288279927DC01821B930B4A
:1002D000A40BB50B84839583A683B7830DC0220F2F
:1002E000331F441F551F24833583468357838281E0
:1002F000938101979383828324813581468157813D
:10030000DA01C9010197A109B1098F5F9F4FAF4F72
:10031000BF4328F30BC0918333822282EA0CFB1C7B
:100320000C1D1D1DE482F5820683178383E0808304
:10033000248135814681578157FF1AC0C901AA27F8
:1003400097FDA095BA2F81709070A070B0705695EF
:10035000479537952795822B932BA42BB52B848318
:100360009583A683B7838281938101969383828349
:10037000DF0101C0D201CD01CDB7DEB7E2E10C94BF
:100380000E12A0E2B0E0E7ECF1E00C94FE116983FC
:100390007A838B839C832D833E834F835887E9E048
:1003A000EE2EF12CEC0EFD1ECE010196B7010E943F
:1003B000D2048E010F5E1F4FCE010596B8010E9438
:1003C000D2048A8991E089278A8BC701B801AE01DE
:1003D000475E5F4F0E9475000E94FD03A096E6E015
:1003E0000C941A12A0E2B0E0E8EFF1E00C94FE11D8
:1003F00069837A838B839C832D833E834F835887C5
:10040000F9E0EF2EF12CEC0EFD1ECE010196B701A6
:100410000E94D2048E010F5E1F4FCE010596B801D7
:100420000E94D204C701B801AE01475E5F4F0E942F
:1004300075000E94FD03A096E6E00C941A12A0E25B
:10044000B0E0E5E2F2E00C94F21169837A838B83E9
:100450009C832D833E834F835887CE010196BE0136
:10046000675F7F4F0E94D204CE010596BE016F5E8A
:100470007F4F0E94D2049985923088F0898982301A
:10048000C8F0943019F4823051F404C0843029F457
:10049000923081F480E690E0C6C0923049F420E0CA
:1004A0009A858A89981321E02A87CE010996BBC0D4
:1004B000823049F420E09A858A89981321E02A8BBA
:1004C000CE014196B0C02D843E844F8458886D88FB
:1004D0007E888F88988CEE24FF248701AA24BB2471
:1004E000650140E050E060E070E0E0E0F0E0C10174
:1004F00081709070892BE9F0E60CF71C081D191D1E
:100500009A01AB012A0D3B1D4C1D5D1D80E090E062
:10051000A0E0B0E0E614F7040805190520F481E036
:1005200090E0A0E0B0E0BA01A901480F591F6A1F8E
:100530007B1FAA0CBB1CCC1CDD1C97FE08C081E0F5
:1005400090E0A0E0B0E0A82AB92ACA2ADB2A3196B6
:10055000E032F10549F0660C771C881C991C569412
:10056000479437942794C3CFFA85EA892B893C892D
:100570008B859C85280F391F2E5F3F4F17C0CA01FE
:1005800081709070892B61F016950795F794E79428
:1005900080E090E0A0E0B0E8E82AF92A0A2B1B2BC3
:1005A00076956795579547952F5F3F4F77FDE7CF36
:1005B0000CC0440F551F661F771F17FD4160EE0CDE
:1005C000FF1C001F111F21503040403090E05907A0
:1005D00090E0690790E4790760F32B8F3C8FDB0193
:1005E000CA018F779070A070B07080349105A1051A
:1005F000B10561F447FD0AC0E114F10401051105DC
:1006000029F0405C5F4F6F4F7F4F40781A8EFE1786
:1006100011F081E08A8F4D8F5E8F6F8F78A383E01A
:10062000898FCE0149960E94FD03A096E2E10C94C9
:100630000E12A8E1B0E0EFE1F3E00C94FE11698343
:100640007A838B839C832D833E834F83588789E0F5
:10065000E82EF12CEC0EFD1ECE010196B7010E9492
:10066000D2048E010F5E1F4FCE010596B8010E9485
:10067000D2048985823040F08989823028F0C70110
:10068000B8010E944A0501C08FEF6896E6E00C941D
:100690001A12A8E1B0E0EFE4F3E00C94FE116983D4
:1006A0007A838B839C832D833E834F83588789E095
:1006B000E82EF12CEC0EFD1ECE010196B7010E9432
:1006C000D2048E010F5E1F4FCE010596B8010E9425
:1006D000D2048985823040F08989823028F0C701B0
:1006E000B8010E944A0501C08FEF6896E6E00C94BD
:1006F0001A12A8E1B0E0EFE7F3E00C94FE11698371
:100700007A838B839C832D833E834F83588789E034
:10071000E82EF12CEC0EFD1ECE010196B7010E94D1
:10072000D2048E010F5E1F4FCE010596B8010E94C4
:10073000D2048985823040F08989823028F0C7014F
:10074000B8010E944A0501C081E06896E6E00C9479
:100750001A12ACE0B0E0EFEAF3E00C940212698305
:100760007A838B839C83CE010196BE016B5F7F4FA2
:100770000E94D2048D81823061F1823050F1843048
:1007800021F48E81882351F12EC02F81388537FDC9
:1007900020C06E812F3131051CF06623F9F023C093
:1007A0008EE190E0821B930B29853A854B855C8511
:1007B00004C056954795379527958A95D2F76623B5
:1007C000B1F050954095309521953F4F4F4F5F4F79
:1007D0000EC020E030E040E050E009C02FEF3FEFD6
:1007E0004FEF5FE704C020E030E040E050E8B9019F
:1007F000CA012C96E2E00C941E12DF92EF92FF9257
:100800000F931F93FC01E480F58006811781D1804E
:100810008081823048F480E090E0A0E1B0E0E82AF6
:10082000F92A0A2B1B2BA5C0843009F49FC0823003
:1008300021F4EE24FF24870105C0E114F104010531
:10084000110519F4E0E0F0E096C0628173819FEF3A
:10085000623879070CF05BC022E83FEF261B370BAC
:100860002A3131052CF020E030E040E050E02AC091
:10087000B801A701022E04C0769567955795479554
:100880000A94D2F781E090E0A0E0B0E004C0880FC5
:10089000991FAA1FBB1F2A95D2F70197A109B10979
:1008A0008E219F21A023B1230097A105B10521F03E
:1008B00081E090E0A0E0B0E09A01AB01282B392B59
:1008C0004A2B5B2BDA01C9018F779070A070B07052
:1008D00080349105A105B10539F427FF09C0205CDA
:1008E0003F4F4F4F5F4F04C0215C3F4F4F4F5F4F13
:1008F000E0E0F0E02030A0E03A07A0E04A07A0E402
:100900005A0710F0E1E0F0E079018A0127C0603871
:10091000710564F5FB01E158FF4FD801C7018F77DE
:100920009070A070B07080349105A105B10539F4C4
:10093000E7FE0DC080E490E0A0E0B0E004C08FE3EB
:1009400090E0A0E0B0E0E80EF91E0A1F1B1F17FFA1
:1009500005C016950795F794E794319687E01695AC
:100960000795F794E7948A95D1F705C0EE24FF2404
:100970008701EFEFF0E06E2F679566276795902F60
:100980009F77D794DD24D7948E2F8695492F462BB9
:10099000582F5D29B701CA011F910F91FF90EF9069
:1009A000DF900895FC01DB01408151812281622F9B
:1009B0006F7770E0221F2227221F9381892F880FD3
:1009C000822B282F30E0991F9927991F11969C930D
:1009D000119721153105A9F54115510561057105DD
:1009E00011F482E037C082E89FEF13969C938E93B8
:1009F00012979A01AB0167E0220F331F441F551F66
:100A00006A95D1F783E08C930DC0220F331F441FEA
:100A1000551F12968D919C911397019713969C9355
:100A20008E931297203080E0380780E0480780E4FA
:100A3000580758F314962D933D934D935C93179755
:100A400008952F3F310579F4411551056105710570
:100A500019F484E08C93089564FF03C081E08C93C3
:100A600012C01C9210C02F57304013963C932E9307
:100A7000129783E08C9387E0440F551F661F771F02
:100A80008A95D1F7706414964D935D936D937C9322
:100A9000179708951F93DC01FB019C91923008F495
:100AA00047C08081823008F443C0943051F41196DD
:100AB0001C91843099F58181682F70E0611B710968
:100AC0003FC0843021F0923031F48230B9F181811D
:100AD000882389F12DC011961C9111978230F1F075
:100AE00081811817D9F412962D913C911397828128
:100AF00093818217930794F028173907BCF0149656
:100B00008D919D910D90BC91A02D248135814681C0
:100B10005781281739074A075B0718F4112341F05A
:100B20000AC082179307A407B50740F4112319F0F0
:100B300061E070E005C06FEF7FEF02C060E070E041
:100B4000CB011F910895DF93CF93CDB7DEB7A7E216
:100B5000B0E0E7E2F0E0808180648C93A7E2B0E04F
:100B6000E7E2F0E080818F778C93A7E2B0E0E7E2E4
:100B7000F0E080818F7D8C93A6E2B0E0E6E2F0E0C9
:100B800080818F7D8C93A6E2B0E0E6E2F0E0808188
:100B90008E7F8C93A6E2B0E0E6E2F0E08081826096
:100BA0008C93A6E2B0E0E6E2F0E0808184608C9372
:100BB000A6E2B0E0E6E2F0E0808180688C93CF911D
:100BC000DF910895DF93CF9300D00F92CDB7DEB7BA
:100BD0008B831A8219828B81803270F5A7E2B0E094
:100BE000E7E2F0E08081807E8C93A7E2B0E0E7E26C
:100BF000F0E090818B81892B8C93A6E2B0E0E6E255
:100C0000F0E0808180648C93E6E2F0E08081829560
:100C10008F70882F90E0817090700097A9F3A6E202
:100C2000B0E0E6E2F0E0808180618C93E4E2F0E005
:100C3000808191819A83898389819A810F900F9015
:100C40000F90CF91DF910895DF93CF93CDB7DEB7AB
:100C5000EAE3F0E087EC8083E7E3F0E01082E4E38E
:100C6000F0E01082E1E3F0E01082EBE3F0E08FEFE0
:100C70008083E8E3F0E01082E5E3F0E01082E2E355
:100C8000F0E01082CF91DF910895DF93CF93CDB73D
:100C9000DEB72D970FB6F894DEBF0FBECDBF8983A8
:100CA0006A834B838981843008F008C18A81883047
:100CB00008F004C18B81823008F000C18981282F9F
:100CC00030E03D872C878C859D858130910509F426
:100CD0004FC02C853D85223031052CF48C859D85B7
:100CE000009771F0EBC02C853D852230310509F469
:100CF00077C08C859D858330910509F4A9C0DEC03D
:100D00008B81282F30E03B872A878A859B85009737
:100D1000D1F02A853B852130310509F0CFC0AAE307
:100D2000B0E0EAE3F0E08081482F8A81282F30E0AC
:100D300081E090E0022E02C0880F991F0A94E2F72A
:100D4000842B8C93BBC0AAE3B0E0EAE3F0E080819F
:100D5000482F8A81282F30E081E090E0022E02C0E7
:100D6000880F991F0A94E2F7809584238C93A6C07C
:100D70008B81282F30E039872887888599850097CF
:100D8000D1F0288539852130310509F097C0A7E3D6
:100D9000B0E0E7E3F0E08081482F8A81282F30E03F
:100DA00081E090E0022E02C0880F991F0A94E2F7BA
:100DB000842B8C9383C0A7E3B0E0E7E3F0E080816D
:100DC000482F8A81282F30E081E090E0022E02C077
:100DD000880F991F0A94E2F7809584238C936EC044
:100DE0008B81282F30E03F832E838E819F81009757
:100DF000D1F02E813F812130310509F05FC0A4E39D
:100E0000B0E0E4E3F0E08081482F8A81282F30E0D1
:100E100081E090E0022E02C0880F991F0A94E2F749
:100E2000842B8C934BC0A4E3B0E0E4E3F0E080813A
:100E3000482F8A81282F30E081E090E0022E02C006
:100E4000880F991F0A94E2F7809584238C9336C00B
:100E50008B81282F30E03D832C838C819D810097EE
:100E6000C9F02C813D812130310541F5A1E3B0E08D
:100E7000E1E3F0E08081482F8A81282F30E081E093
:100E800090E0022E02C0880F991F0A94E2F7842B8B
:100E90008C9314C0A1E3B0E0E1E3F0E08081482F3F
:100EA0008A81282F30E081E090E0022E02C0880F76
:100EB000991F0A94E2F7809584238C932D960FB6A0
:100EC000F894DEBF0FBECDBFCF91DF910895DF93C1
:100ED000CF93CDB7DEB72D970FB6F894DEBF0FBE18
:100EE000CDBF89836A834B838981843008F008C130
:100EF0008A81883008F004C18B81823008F000C1FB
:100F00008981282F30E03D872C878C859D85813015
:100F1000910509F44FC02C853D85223031052CF414
:100F20008C859D85009771F0EBC02C853D85223026
:100F3000310509F477C08C859D858330910509F4CE
:100F4000A9C0DEC08B81282F30E03B872A878A85A5
:100F50009B850097D1F02A853B852130310509F02A
:100F6000CFC0ABE3B0E0EBE3F0E08081482F8A81B3
:100F7000282F30E081E090E0022E02C0880F991FF8
:100F80000A94E2F7842B8C93BBC0ABE3B0E0EBE3B5
:100F9000F0E08081482F8A81282F30E081E090E0C6
:100FA000022E02C0880F991F0A94E2F780958423CD
:100FB0008C93A6C08B81282F30E0398728878885BD
:100FC00099850097D1F0288539852130310509F0C0
:100FD00097C0A8E3B0E0E8E3F0E08081482F8A8181
:100FE000282F30E081E090E0022E02C0880F991F88
:100FF0000A94E2F7842B8C9383C0A8E3B0E0E8E383
:10100000F0E08081482F8A81282F30E081E090E055
:10101000022E02C0880F991F0A94E2F7809584235C
:101020008C936EC08B81282F30E03F832E838E817E
:101030009F810097D1F02E813F812130310509F049
:101040005FC0A5E3B0E0E5E3F0E08081482F8A814E
:10105000282F30E081E090E0022E02C0880F991F17
:101060000A94E2F7842B8C934BC0A5E3B0E0E5E350
:10107000F0E08081482F8A81282F30E081E090E0E5
:10108000022E02C0880F991F0A94E2F780958423EC
:101090008C9336C08B81282F30E03D832C838C814C
:1010A0009D810097C9F02C813D812130310541F5AA
:1010B000A2E3B0E0E2E3F0E08081482F8A81282FAC
:1010C00030E081E090E0022E02C0880F991F0A9460
:1010D000E2F7842B8C9314C0A2E3B0E0E2E3F0E0EB
:1010E0008081482F8A81282F30E081E090E0022E15
:1010F00002C0880F991F0A94E2F7809584238C938D
:101100002D960FB6F894DEBF0FBECDBFCF91DF9105
:101110000895DF93CF9300D000D0CDB7DEB7898399
:101120006A838981843008F072C08A81883008F02F
:101130006EC08981282F30E03C832B838B819C817A
:101140008130910549F12B813C81223031052CF40D
:101150008B819C81009761F05AC02B813C812230A9
:10116000310571F18B819C8183309105E9F14FC08C
:10117000ABE3B0E0EBE3F0E08081482F8A81282FD9
:1011800030E081E090E0022E02C0880F991F0A949F
:10119000E2F784278C933BC0A8E3B0E0E8E3F0E0FB
:1011A0008081482F8A81282F30E081E090E0022E54
:1011B00002C0880F991F0A94E2F784278C9327C0F6
:1011C000A5E3B0E0E5E3F0E08081482F8A81282F95
:1011D00030E081E090E0022E02C0880F991F0A944F
:1011E000E2F784278C9313C0A2E3B0E0E2E3F0E0DF
:1011F0008081482F8A81282F30E081E090E0022E04
:1012000002C0880F991F0A94E2F784278C930F90ED
:101210000F900F900F90CF91DF910895DF93CF93B0
:1012200000D000D00F92CDB7DEB78A836B838A815E
:10123000843008F06BC08B81883008F067C08A81E9
:10124000282F30E03D832C834C815D814130510556
:1012500041F18C819D818230910534F42C813D8156
:101260002115310561F052C04C815D81423051053C
:1012700051F18C819D8183309105B9F147C0E9E33B
:10128000F0E08081282F30E08B81882F90E0A90149
:1012900002C0559547958A95E2F7CA018170898306
:1012A00035C0E6E3F0E08081282F30E08B81882F85
:1012B00090E0A90102C0559547958A95E2F7CA01C9
:1012C0008170898323C0E3E3F0E08081282F30E040
:1012D0008B81882F90E0A90102C0559547958A958A
:1012E000E2F7CA018170898311C0E0E3F0E08081F8
:1012F000282F30E08B81882F90E0A90102C05595FE
:1013000047958A95E2F7CA018170898389810F9098
:101310000F900F900F900F90CF91DF910895DF9372
:10132000CF9300D000D0CDB7DEB789836A8389819F
:10133000843090F58981282F30E03C832B838B818A
:101340009C8181309105D1F02B813C812230310587
:101350002CF48B819C81009761F01EC02B813C8115
:101360002230310581F08B819C818330910581F0A1
:1013700013C0EAE3F0E08A8180830EC0E7E3F0E087
:101380008A81808309C0E4E3F0E08A81808304C01D
:10139000E1E3F0E08A8180830F900F900F900F902F
:1013A000CF91DF910895DF93CF9300D000D0CDB7D8
:1013B000DEB789836A838981843090F58981282FFB
:1013C00030E03C832B838B819C8181309105D1F06F
:1013D0002B813C81223031052CF48B819C8100973C
:1013E00061F01EC02B813C812230310581F08B8160
:1013F0009C818330910581F013C0EBE3F0E08A819A
:1014000080830EC0E8E3F0E08A81808309C0E5E3D1
:10141000F0E08A81808304C0E2E3F0E08A81808387
:101420000F900F900F900F90CF91DF910895DF9361
:10143000CF9300D000D000D0CDB7DEB789836A83C8
:101440008981833008F05EC08A81843008F05AC0F8
:101450008981282F30E03E832D838D819E818130CC
:101460009105D1F02D813E812230310561F18D81D0
:101470009E81009709F046C0A5E5B0E0E5E5F0E003
:1014800080818C7F8C93A5E5B0E0E5E5F0E090816C
:101490008A81892B8C9336C0A5E5B0E0E5E5F0E0C4
:1014A0008081837F8C93A5E5B0E0E5E5F0E0808165
:1014B000282F8A81882F90E0880F991F880F991F05
:1014C000822B8C931FC08A81282F30E03C832B8392
:1014D0008B819C818230910531F02B813C812330BE
:1014E000310549F00FC0A5E5B0E0E5E5F0E0808109
:1014F0008F7B8C9307C0A5E5B0E0E5E5F0E0808147
:1015000080648C9326960FB6F894DEBF0FBECDBFD5
:10151000CF91DF910895DF93CF9300D00F92CDB795
:10152000DEB789838981833050F58981282F30E0A7
:101530003B832A838A819B818130910589F02A81AE
:101540003B8122303105A1F08A819B810097B9F45B
:10155000ABE5B0E0EBE5F0E0808181608C930FC0FB
:10156000ABE5B0E0EBE5F0E0808184608C9307C0F0
:10157000ABE5B0E0EBE5F0E0808180648C930F9008
:101580000F900F90CF91DF910895DF93CF930F923B
:10159000CDB7DEB789830F90CF91DF910895DF93A8
:1015A000CF930F92CDB7DEB789830F90CF91DF91A4
:1015B0000895DF93CF9300D000D00F92CDB7DEB760
:1015C00089837B836A838981833058F58A819B81F3
:1015D000009739F18981282F30E03D832C838C815D
:1015E0009D818130910581F02C813D812230310532
:1015F00091F08C819D810097A1F48A819B819093C9
:101600008100809380000DC08A819B81909383002C
:101610008093820006C08A819B819093850080938D
:1016200084000F900F900F900F900F90CF91DF914B
:1016300008951F920F920FB60F9211242F933F938C
:101640004F935F936F937F938F939F93AF93BF93CA
:10165000EF93FF93DF93CF93CDB7DEB780918000F8
:1016600090918100009729F0E0918000F091810035
:101670000995CF91DF91FF91EF91BF91AF919F912C
:101680008F917F916F915F914F913F912F910F902B
:101690000FBE0F901F9018951F920F920FB60F92CA
:1016A00011242F933F934F935F936F937F938F9367
:1016B0009F93AF93BF93EF93FF93DF93CF93CDB7F8
:1016C000DEB78091820090918300009729F0E0912D
:1016D0008200F09183000995CF91DF91FF91EF9106
:1016E000BF91AF919F918F917F916F915F914F913A
:1016F0003F912F910F900FBE0F901F9018951F9242
:101700000F920FB60F9211242F933F934F935F9335
:101710006F937F938F939F93AF93BF93EF93FF93B9
:10172000DF93CF93CDB7DEB7809184009091850091
:10173000009729F0E0918400F09185000995CF9100
:10174000DF91FF91EF91BF91AF919F918F917F9129
:101750006F915F914F913F912F910F900FBE0F901E
:101760001F901895DF93CF93CDB7DEB7AFE5B0E00C
:10177000EFE5F0E0808180688C93CF91DF91089550
:10178000DF93CF93CDB7DEB7AFE5B0E0EFE5F0E0A4
:10179000808180688C93CF91DF910895DF93CF9300
:1017A000CDB7DEB763970FB6F894DEBF0FBECDBFDF
:1017B00081E08B8B1A8A198A188A1F861A8ADDC0E3
:1017C0008A89882F90E0FC01E859FF4F908181E0E1
:1017D000692F0E940E09888B198AB9C08989882FC0
:1017E00090E0FC01E459FF4F908181E0692F0E9455
:1017F0000E09888B8889882309F0A6C080E090E0D4
:10180000A0EFB1E48B879C87AD87BE876B857C8515
:101810008D859E8520E030E04AEF54E40E941F024F
:10182000DC01CB018F839887A987BA876F81788580
:1018300089859A8520E030E040E85FE30E947903E3
:1018400088232CF481E090E09E838D833FC06F81DC
:10185000788589859A8520E03FEF4FE757E40E941D
:10186000190318164CF56B857C858D859E8520E0C7
:1018700030E040E251E40E941F02DC01CB01BC01D8
:10188000CD010E944900DC01CB019E838D830FC0F6
:1018900088EC90E09C838B838B819C810197F1F78E
:1018A0009C838B838D819E8101979E838D838D8107
:1018B0009E81009769F714C06F81788589859A8524
:1018C0000E944900DC01CB019E838D838D819E8126
:1018D0009A83898389819A810197F1F79A83898311
:1018E0008989882F90E0FC01E459FF4F908181E0C5
:1018F000692F0E940E09888B8889882329F50CC0DE
:101900008989882F90E0FC01E459FF4F908181E0A4
:10191000692F0E940E09888B8889882389F38A8918
:10192000482F50E08989282F30E0CA01880F991F7D
:10193000880F991F820F931FFC01E059FF4F808190
:101940008B8B81E08F8707C089898F5F898B89891D
:10195000843008F443CF8A89882F90E0FC01E8594D
:10196000FF4F908181E0692F41E00E9467078F85DA
:10197000813039F08A898F5F8A8B8A89843008F4B4
:101980001FCF8B8963960FB6F894DEBF0FBECDBF15
:10199000CF91DF910895DF93CF93CDB7DEB7AEE45B
:1019A000B0E0EEE4F0E080818B7F8C93AEE4B0E0B9
:1019B000EEE4F0E0808182608C93AEE4B0E0EEE48F
:1019C000F0E080818E7F8C93CF91DF910895DF933B
:1019D000CF9300D0CDB7DEB79A838983ECE4F0E0F3
:1019E00089819A81918380830F900F90CF91DF91AD
:1019F0000895DF93CF93CDB7DEB7ECE4F0E08081BC
:101A00009181CF91DF910895DF93CF930F92CDB75E
:101A1000DEB78983EAE4F0E08981882F90E0918342
:101A200080830F90CF91DF910895DF93CF93CDB74F
:101A3000DEB7AEE4B0E0EEE4F0E0808180648C9349
:101A4000A9E5B0E0E9E5F0E0808180628C93CF9178
:101A5000DF910895DF93CF9300D0CDB7DEB79A839F
:101A6000898389819A81009731F089819A81909345
:101A70008700809386000F900F90CF91DF9108959B
:101A8000DF93CF9300D00F92CDB7DEB789838981E2
:101A9000282F30E03B832A838A819B81009731F095
:101AA0002A813B812130310549F00FC0AEE4B0E01E
:101AB000EEE4F0E080818F7B8C9307C0AEE4B0E071
:101AC000EEE4F0E0808180648C930F900F900F9093
:101AD000CF91DF910895DF93CF93CDB7DEB7E6E4E2
:101AE000F0E080819181CF91DF910895DF93CF93D2
:101AF000CDB7DEB7A9E5B0E0E9E5F0E080818F7D04
:101B00008C93CF91DF9108951F920F920FB60F9291
:101B100011242F933F934F935F936F937F938F93F2
:101B20009F93AF93BF93EF93FF93DF93CF93CDB783
:101B3000DEB78091860090918700009729F0E091B0
:101B40008600F09187000995CF91DF91FF91EF9189
:101B5000BF91AF919F918F917F916F915F914F91C5
:101B60003F912F910F900FBE0F901F901895DF930C
:101B7000CF93CDB7DEB7A3E5B0E0E3E5F0E0808139
:101B800088608C93A3E5B0E0E3E5F0E080818064B9
:101B90008C93A9E5B0E0E9E5F0E080818D7F8C933E
:101BA000A9E5B0E0E9E5F0E080818E7F8C93ECE57B
:101BB000F0E01082A3E5B0E0E3E5F0E08081887C0E
:101BC0008C93A3E5B0E0E3E5F0E0808182638C9341
:101BD000CF91DF910895DF93CF930F92CDB7DEB70A
:101BE0008983E2E5F0E0898180830F90CF91DF91D6
:101BF0000895DF93CF930F92CDB7DEB78983ECE5DD
:101C0000F0E0898180830F90CF91DF910895DF9379
:101C1000CF93CDB7DEB7A3E5B0E0E3E5F0E0808198
:101C2000887F8C93CF91DF910895DF93CF9300D07D
:101C3000CDB7DEB79A83898389819A81009731F085
:101C400089819A8190938900809388000F900F90EA
:101C5000CF91DF910895DF93CF9300D0CDB7DEB75A
:101C60009A83898389819A81009731F089819A8149
:101C700090938B0080938A000F900F90CF91DF910B
:101C800008951F920F920FB60F9211242F933F9336
:101C90004F935F936F937F938F939F93AF93BF9374
:101CA000EF93FF93DF93CF93CDB7DEB7809188009A
:101CB00090918900009729F0E0918800F0918900C7
:101CC0000995CF91DF91FF91EF91BF91AF919F91D6
:101CD0008F917F916F915F914F913F912F910F90D5
:101CE0000FBE0F901F9018951F920F920FB60F9274
:101CF00011242F933F934F935F936F937F938F9311
:101D00009F93AF93BF93EF93FF93DF93CF93CDB7A1
:101D1000DEB780918A0090918B00009729F0E091C6
:101D20008A00F0918B000995CF91DF91FF91EF919F
:101D3000BF91AF919F918F917F916F915F914F91E3
:101D40003F912F910F900FBE0F901F901895DF932A
:101D5000CF9300D0CDB7DEB783E390E09A83898339
:101D6000E9E2F0E089818083E0E4F0E089819A8112
:101D7000892F99278083AAE2B0E0EAE2F0E080812F
:101D80008B7F8C93E0E4F0E086E88083AAE2B0E009
:101D9000EAE2F0E0808188608C93AAE2B0E0EAE2B7
:101DA000F0E0808180618C930F900F90CF91DF9154
:101DB0000895DF93CF930F92CDB7DEB78983EBE21F
:101DC000F0E08081829586958770882F90E0817001
:101DD00090700097A1F3ECE2F0E089818083EBE260
:101DE000F0E08081829586958770882F90E08170E1
:101DF00090700097A1F3ABE2B0E0EBE2F0E08081FD
:101E000080648C930F90CF91DF910895DF93CF93EF
:101E100000D00F92CDB7DEB78B831A8219820BC028
:101E200089819A8101969A83898389819A8123E1A4
:101E30008838920761F0EBE2F0E080818295869528
:101E40008770882F90E081709070009749F38981A6
:101E50009A8123E18838920729F11A821982ECE2EB
:101E6000F0E08B8180830BC089819A8101969A83EF
:101E7000898389819A8123E18838920761F0EBE2B6
:101E8000F0E08081829586958770882F90E0817040
:101E90009070009749F3ABE2B0E0EBE2F0E08081B4
:101EA00080648C930F900F900F90CF91DF910895E5
:101EB000DF93CF9300D0CDB7DEB79A8389830BC071
:101EC000E981FA81208189819A8101969A838983A7
:101ED000822F0E94060FE981FA818081882381F791
:101EE0000F900F90CF91DF910895DF93CF930F92D2
:101EF000CDB7DEB78983EBE2F0E0808182958695ED
:101F00008770882F90E081709070882321F0ECE238
:101F1000F0E0898180830F90CF91DF910895DF9366
:101F2000CF93CDB7DEB7EBE2F0E080818823DCF71A
:101F3000ECE2F0E08081CF91DF910895DF93CF93C1
:101F4000CDB7DEB7ECE2F0E08081CF91DF9108956C
:101F5000DF93CF9300D00F92CDB7DEB78FEF8B8397
:101F60001A8219820BC089819A8101969A8389838A
:101F700089819A8123E18838920729F0EBE2F0E029
:101F80008081882384F789819A8123E188389207A8
:101F900021F0ECE2F0E080818B838B810F900F9039
:101FA0000F90CF91DF910895DF93CF9300D00F92E0
:101FB000CDB7DEB789837B836A838981833080F4E0
:101FC0008A819B81009761F08981882F90E0880F3A
:101FD000991FFC01E457FF4F8A819B819183808385
:101FE0000F900F900F90CF91DF9108951F920F9255
:101FF0000FB60F9211242F933F934F935F936F93DC
:102000007F938F939F93AF93BF93EF93FF93DF9350
:10201000CF93CDB7DEB780918C0090918D00009763
:1020200029F0E0918C00F0918D000995CF91DF911E
:10203000FF91EF91BF91AF919F918F917F916F91A0
:102040005F914F913F912F910F900FBE0F901F9076
:1020500018951F920F920FB60F9211242F933F9352
:102060004F935F936F937F938F939F93AF93BF93A0
:10207000EF93FF93DF93CF93CDB7DEB780918E00C0
:1020800090918F00009729F0E0918E00F0918F00E1
:102090000995CF91DF91FF91EF91BF91AF919F9102
:1020A0008F917F916F915F914F913F912F910F9001
:1020B0000FBE0F901F9018951F920F920FB60F92A0
:1020C00011242F933F934F935F936F937F938F933D
:1020D0009F93AF93BF93EF93FF93DF93CF93CDB7CE
:1020E000DEB78091900090919100009729F0E091E7
:1020F0009000F09191000995CF91DF91FF91EF91C0
:10210000BF91AF919F918F917F916F915F914F910F
:102110003F912F910F900FBE0F901F901895DF9356
:10212000CF93CDB7DEB7E1E4F0E08FE08083CF91CD
:10213000DF910895DF93CF93CDB7DEB7A1E4B0E090
:10214000E1E4F0E0808188618C93E1E4F0E01082CA
:10215000CF91DF910895DF93CF93CDB7DEB7809114
:102160009200909193000196909393008093920037
:1021700080919200909193002FE08334920739F47C
:1021800080EC0E94EB0D1092930010929200CF9180
:10219000DF910895DF93CF93CDB7DEB780919400A0
:1021A0009091950001969093950080939400809172
:1021B00094009091950027E28031920721F41092CB
:1021C000950010929400CF91DF910895DF93CF9303
:1021D000CDB7DEB76E970FB6F894DEBF0FBECDBF9A
:1021E0000E9424060E94B70D1E8E78C08E8D0E941C
:1021F000F90D80E090E0A6E9B3E4898F9A8FAB8F68
:10220000BC8F698D7A8D8B8D9C8D20E030E04AEFFC
:1022100054E40E941F02DC01CB018D8B9E8BAF8B9F
:10222000B88F6D897E898F89988D20E030E040E8F5
:102230005FE30E94790388232CF481E090E09C8B7B
:102240008B8B3FC06D897E898F89988D20E03FEF11
:102250004FE757E40E94190318164CF5698D7A8DE3
:102260008B8D9C8D20E030E040E251E40E941F0203
:10227000DC01CB01BC01CD010E944900DC01CB0196
:102280009C8B8B8B0FC088EC90E09A8B898B898913
:102290009A890197F1F79A8B898B8B899C89019791
:1022A0009C8B8B8B8B899C89009769F714C06D89F7
:1022B0007E898F89988D0E944900DC01CB019C8B1F
:1022C0008B8B8B899C89988B8F878F8598890197B9
:1022D000F1F7988B8F878E8D865F8E8F8E8D8A3FDC
:1022E00008F484CF8AEF8D8F78C08D8D0E94F90D10
:1022F00080E090E0A6E9B3E48B879C87AD87BE873A
:102300006B857C858D859E8520E030E04AEF54E426
:102310000E941F02DC01CB018F839887A987BA87AF
:102320006F81788589859A8520E030E040E85FE319
:102330000E94790388232CF481E090E09E838D83B2
:102340003FC06F81788589859A8520E03FEF4FE710
:1023500057E40E94190318164CF56B857C858D8512
:102360009E8520E030E040E251E40E941F02DC0143
:10237000CB01BC01CD010E944900DC01CB019E8351
:102380008D830FC088EC90E09C838B838B819C8134
:102390000197F1F79C838B838D819E8101979E83AA
:1023A0008D838D819E81009769F714C06F81788538
:1023B00089859A850E944900DC01CB019E838D832B
:1023C0008D819E819A83898389819A810197F1F712
:1023D0009A8389838D8D8A508D8F8D8D882309F006
:1023E00084CF02CF2F923F924F925F926F927F9253
:1023F0008F929F92AF92BF92CF92DF92EF92FF9215
:102400000F931F93CF93DF93CDB7DEB7CA1BDB0BC0
:102410000FB6F894DEBF0FBECDBF09942A88398865
:1024200048885F846E847D848C849B84AA84B9846C
:10243000C884DF80EE80FD800C811B81AA81B98178
:10244000CE0FD11D0FB6F894DEBF0FBECDBFED018C
:062450000895F894FFCF8F
:10245600000000000000000000010203040506075A
:102466003132332B3435362D3738392A43303D2F28
:00000001FF
